:020000040800F2
:100000008006002001020008C1110008310F00081D
:10001000BD110008D1050008D5110008000000003E
:10002000000000000000000000000000C9110008EE
:10003000D505000800000000C5110008CD1100081A
:100040001B0200081B0200081B0200081B0200081C
:100050001B0200081B0200081B0200081B0200080C
:100060001B0200081B0200081B0200081B020008FC
:100070001B0200081B0200081B0200081B020008EC
:100080001B0200081B0200081B0200081B020008DC
:100090001B0200081B0200081B0200081B020008CC
:1000A0001B0200081B0200081B0200081B020008BC
:1000B0001B0200081B0200081B0200081B020008AC
:1000C0001B0200081B0200081B0200081B0200089C
:1000D0001B0200081B0200081B0200081B0200088C
:1000E0001B0200081B0200081B0200081B0200087C
:1000F0001B0200081B0200081B0200081B0200086C
:100100001B0200081B0200081B0200081B0200085B
:100110001B0200081B0200081B0200081B0200084B
:100120001B0200081B0200081B0200081B0200083B
:1001300000F002F800F055F814A696E8000CB2445E
:10014000B344DA4501D100F04CF8BAE80F000FA62D
:1001500096E83000A5EB040504EB0607AAEB0704BC
:10016000A7F101074FEA15154FEA3414A4F1010471
:10017000AC4201D300F035F813F0010F18BFFB1AA1
:1001800043F0010300F001F8DBE7184750170000C7
:1001900070170000103A24BF78C878C1FAD8520707
:1001A00024BF30C830C144BF04680C6070470000F1
:1001B000704700000023002400250026103A28BFC5
:1001C00078C1FBD8520728BF30C148BF0B607047C9
:1001D000752900F07180002070471FB51FBD10B554
:1001E00010BD00F0BAF91146FFF7F7FF00F0F4FF79
:1001F00000F0D8F903B4FFF7F2FF03BC00F0E0F918
:100200000948804709480047FEE7FEE7FEE7FEE7AA
:10021000FEE7FEE7FEE7FEE7FEE7FEE704480549E6
:10022000054A064B70470000D11100083101000853
:100230008000002080060020800200208002002034
:100240000FB41CB5074B06AA7B446946009005987D
:1002500000F06BF90020694600F07AF91CBC5DF8EB
:1002600014FB00000503000070B5044685690068B2
:10027000C10601D5302600E02026C00707D070BD9A
:10028000D4E9012130469047206A401C20626D1E4F
:10029000F6D570BD70B5044685690078C00707D1F2
:1002A00070BDD4E9012120209047206A401C2062C3
:1002B0006D1EF6D570BD00002DE9F0410646002404
:1002C00010687529314616A510D0AFF300800028BC
:1002D00002DA404213A507E031688A0701D512A56A
:1002E00002E0490704D511A5012401E0AFF3008025
:1002F00000210A2206F1240709E0B0FBF2FCB0FB62
:10030000F2F302FB1C00303078541846491C0028D8
:10031000F3D123462A463046BDE8F04100F0A7B8A5
:10032000000000002D0000002B0000002000000055
:100330002DE9F05F894604464FF0000ADFF824B14A
:10034000FB44C0F820A02046E168884700287DD003
:10035000252806D0D4E901219047206A401C20625C
:10036000F1E700255F462046E168884720280646D9
:1003700007DB312E05D2B81910F8200C08B105435F
:10038000F1E7A80701D525F00405C4F81CA0002753
:10039000C4F818A02A2E09D0304601F05BF938B312
:1003A00004EB8708303EC8F8186019E059F8041BC0
:1003B000204604EB87029161E1688847012F0646D9
:1003C00018D1E069002820DA25F020051DE0D8F8D2
:1003D000180000EB800006EB40003038C8F8180029
:1003E0002046E1688847064601F034F90028EED13E
:1003F000012F0AD02E2E08D12046E16888477F1CA5
:100400000646022F45F02005C4DBA069002803DA68
:10041000404245F00105A061E80701D025F0100534
:10042000A6B1A6F14100192802D8203645F400658E
:100430004A463146204625604D46FFF7C9FE60B169
:10044000012807D0ED1D25F0070000E007E000F1CE
:10045000080978E705F1040975E730467AE7206A6C
:10046000BDE8F09F1E1300007047704770472DE9EC
:10047000F0470D4699469246044600F1240801686B
:10048000880604D5E06921F01001216000E0012018
:10049000A84201DD471B00E00027A1697A1902EBA1
:1004A0000900081AA0612078C00602D42046FFF790
:1004B000DBFE002608E0D4E901211AF80600904787
:1004C000206A401C761C20624E45F4DB2078C00672
:1004D0000AD52046FFF7C8FE06E0D4E90121302006
:1004E0009047206A401C2062381EA7F10107F4DC07
:1004F00007E0D4E9012118F805009047206A401C64
:100500002062281EA5F10105F3DC2046FFF7C2FE9C
:100510002078000602D50220BDE8F0870120FBE725
:1005200001694A1C02610878704700B58FB0CDE9B7
:1005300001310021059105497944CDE903101146A7
:100540006846FFF7F5FE0FB000BD0000E5FFFFFFB6
:100550000A6802F8010B0A607047754600F02CF833
:10056000AE4605006946534620F00700854618B0A0
:1005700020B5FFF753FEBDE820404FF000064FF0D6
:1005800000074FF000084FF0000BAC46ACE8C00984
:10059000ACE8C009ACE8C009ACE8C00921F007012B
:1005A0008D46704710B50446AFF300802046BDE885
:1005B0001040FFF71FBE00000048704710000020E9
:1005C00001491820ABBEFEE726000200704700007C
:1005D000FEE7000070470000B0B5044600F00AF9DD
:1005E000054640F20000C2F200000078611C18BF0E
:1005F000044400BF00F0FEF8401BA042FAD3B0BD97
:100600002DE9F04F82B00E68002E00F0E980A0F1D5
:10061000804241F6004540F20043A2F58432C4F224
:1006200001050624C4F201034FEAB227A84208BF1D
:1006300005244FF0000E4FF001080F254FF0000A7F
:100640004FF0000B052F38BF4FEAB224009408E0AA
:100650000E680AF1010A36FA0AF20EF1040E00F0F1
:10066000BF8008FA0AFC16EA0C09F1D04E684FF672
:10067000FF72C1F21002964212DC122E56D8DFE849
:1006800006F0350B4D49555555555555555555554C
:1006900055555545510000BFD1F80CB046E000BF9C
:1006A0004FF6FF72C1F2210296420FDC0022C1F226
:1006B000110296421AD00022C1F21202964215D0BF
:1006C0000022C1F22102964210D02FE00022C1F296
:1006D000220296420AD00022C1F23102964205D08F
:1006E0000022C1F23202964220D100BF8A684AB18C
:1006F000012A14BFC0F814C0C0F810C04FF0080B96
:1007000014E000BF4FF0040B10E000BFCA6802F114
:10071000040B0BE04FF0000B08E000BFCA6802F1C9
:10072000080B03E0CA6802F10C0B00BF02467446D6
:10073000B9F5807F24BF0432203C166805FA04F71F
:1007400026EA07070BFA04F637431760CA79D20680
:100750007FF57EAF41F21807C4F202073A684FF600
:10076000084542F001023A603A68CFF6FF7502F0A0
:1007700001020192019A2AF003021A440F245759E8
:100780000EF00C06B440A743009C04FA06F637436B
:1007900057514E6840F20C44F2029A6854BF22EA64
:1007A000090242EA0902C4F201049A602268B7020F
:1007B00054BF22EA090242EA090222605A68B703DA
:1007C00054BF22EA090242EA09025A600F251A6858
:1007D000F70354BF22EA090242EA09021A6037E726
:1007E00002B0BDE8F08F0000002A08BF09040161D3
:1007F0007047000040F27C00C2F2000000687047C1
:1008000040F2000040F27C01C2F20000C2F200019E
:1008100000780A68104408607047000080B542F212
:100820000000C4F20200016841F0100101600320E1
:1008300000F07AF80F2000F005F800F027F800200B
:1008400080BD000070B540F20006C2F2000640F222
:1008500008013278C2F200014FF47A730968B3FBE1
:10086000F2F20446B1FBF2F1084600F04BFB0F2C0C
:100870004FF0010508D838B94FF0FF30214600226B
:10088000002500F025F87460284670BD82B041F262
:100890001800C4F202000168022241F00101016067
:1008A000016801F0010101910199416841F0805115
:1008B0004160406800F08050009000980420C4F22D
:1008C0000100016862F31A61016002B07047000024
:1008D00010B54EF60C5CCEF2000CDCF80030C3F321
:1008E000022E8EF00704042C28BF0424BEF103035B
:1008F0004FF0FF3E0EFA04F438BF0023A1439940A5
:100900000EFA03F39A43114300F00F0200F1604323
:100910000901043A03F564436244002848BF02F128
:100920000C03197010BD00004EF60C51CEF2000100
:100930000A684FF6FF031A4060F30A2242F0806013
:1009400040F0FD7008607047002804BF0120704728
:100950002DE9F04381B042F20008C4F202080446D7
:10096000D8F800000D4600F0070088420CD2D8F8F5
:10097000000020F007002843C8F80000D8F8000065
:1009800000F00700A8426CD1206841F204098107F9
:10099000C4F2020917D5410705D5D9F8001041F472
:1009A000E061C9F80010010705D5D9F8001041F43D
:1009B0006051C9F80010D9F80010A26821F0F001C8
:1009C0001143C9F80010C00742D1D8F8000000F068
:1009D0000700A8420CD9D8F8000020F007002843EF
:1009E000C8F80000D8F8000000F00700A84238D18D
:1009F0002068410707D5D9F80010E26821F4E061CA
:100A00001143C9F80010000708D5D9F80000216982
:100A100020F4605040EAC100C9F80000D9F8002075
:100A200002F00C00082841F20020C0F27A004DD1FB
:100A300041F6C503C2F38341C0F60003595CD203FB
:100A400038D440F60010C0F23D0048433EE000BFFD
:100A5000606859F8041C022808D0012826D18903AF
:100A600006D4012001B0BDE8F08300BF8901F8D5AC
:100A7000D9F8001021F003010843C9F80000FFF77E
:100A8000B9FE064641F28837D9F80000616800F0E7
:100A90000C00B0EB810F98D0FFF7ACFE801BB84282
:100AA000F2D9032001B0BDE8F08300BF8907D8D593
:100AB000DEE700BFD9F8002041F6C303C2F340428D
:100AC000C0F600039A5C4843B0FBF2F0D9F800107E
:100AD00041F27362C1F30311C0F60002515C40F2AF
:100AE000080220FA01F140F20400C2F2000000689E
:100AF000C2F200021160FFF7A5FE002001B0BDE8C0
:100B0000F0830000002804BF012070472DE9F04168
:100B100082B00446007841F20006C007C4F2020623
:100B20000CD0706800F00C00042840F08180306820
:100B3000800303D56068002800F046812078800794
:100B40001BD5706810F00C0F09D0706800F00C0015
:100B5000082840F087807068C00300F18380306807
:100B6000800703D52069012840F02E813068616933
:100B700020F0F80040EAC10030602078000713D46C
:100B8000207840072CD4E569002D00F018817068AA
:100B900000F00C00082840F0A780012D40F00481EF
:100BA000012002B0BDE8F081A069002800F0848037
:100BB0000020C4F242200121C0F88014FFF71AFE81
:100BC000054600BF706A800700F1B280FFF712FE91
:100BD000401B0228F6D9032002B0BDE8F08100BF17
:100BE000F0695FEAC00808D4F06940F08050F06115
:100BF000F06900F080500090009847F20007C4F2BE
:100C000000073868C00549D4386840F480703860FF
:100C1000FFF7F0FD054600BF3868C0053ED4FFF77A
:100C2000E9FD401B6428F7D9032002B0BDE8F0813C
:100C3000706800F00C00082803D17068C0033FF50D
:100C400076AF61683068002900F00C81B1F5A02F03
:100C500000F00081B1F5803F40F01A8140F480300F
:100C60001CE100BF2069002840F20000C4F24220CD
:100C700000F0888001210160FFF7BCFD054600BF40
:100C8000306880073FF572AFFFF7B4FD401B0228C4
:100C9000F6D9032002B0BDE8F08100BFE168306AF8
:100CA000002900F09D80052900F09280012940F084
:100CB000AF8040F00100B1E00020C4F242200021EA
:100CC000C0F88014FFF796FD054600BF706A8007E4
:100CD0007FF556AFFFF78EFD401B0228F6D90320A3
:100CE00002B0BDE8F08100BF0027C4F24227002017
:100CF0003866FFF77FFD022D05460DD13068800173
:100D000040F1DE80FFF776FD401B02284FF0030024
:100D1000F4D902B0BDE8F081306880014FD5FFF70B
:100D200069FD401B02284FF00300F5D9F1E700BF31
:100D300040F20800C2F20000006844F6D351C1F24C
:100D40006201A0FB0101480A019000BF00BF0198A9
:100D5000411E002801913FF413AF00BF0198411ECE
:100D6000002801913FF40CAF00BF0198411E0028FC
:100D700001913FF405AF00BF0198411E0028019189
:100D8000E4D1FDE600210160FFF734FD054600BF18
:100D9000306880077FF5F1AEFFF72CFD401B02287D
:100DA0004FF00300F4D9B4E77068216A00F4803290
:100DB0008A4209D1616A00F47010884204D100208F
:100DC00002B0BDE8F08100BF012002B0BDE8F081B3
:100DD00040F004003062306A40F001001EE000BFC5
:100DE00020F001003062306A20F004003062FFF72A
:100DF00001FD054641F28837306A800720D5FFF7AC
:100E0000F9FC401BB8424FF00300F5D981E700BF61
:100E100020F001003062306A20F004003062FFF7F9
:100E2000E9FC054641F28837306A800708D4FFF7AD
:100E3000E1FC401BB842F7D9032002B0BDE8F081C5
:100E4000B8F1000F3FF59FAEF06920F08050F061DF
:100E500099E600BF40F480203060306840F4803074
:100E60001CE000BF20F480303060306820F4802027
:100E70003060FFF7BFFC0546306880037FF55EAE4B
:100E8000FFF7B8FC401B64284FF00300F4D940E79B
:100E900020F480303060306820F480203060FFF72C
:100EA000A9FC0546306880033FF548AEFFF7A2FC79
:100EB000401B6428F6D9032002B0BDE8F08100BFD2
:100EC000206AB0F5803F05D17168A26821F4003135
:100ED000114371607168626A21F47411114308430F
:100EE000706001203866FFF785FC04463068800199
:100EF0003FF565AFFFF77EFC001B02284FF00300B3
:100F0000F4D906E7411E0020B0EB116F1CBF012091
:100F100070474EF21002CEF2000251604EF623519D
:100F2000CEF20001F0230B70072190601160704732
:100F3000FEE7000010B540200021002400F068F812
:100F40008020002100F064F80020012100F060F80A
:100F5000532C04F10104F7D341200021002400F0B8
:100F600057F88020002100F053F800BF0020012135
:100F700000F04EF8532C04F10104F7D34220002175
:100F8000002400F045F88020002100F041F800BF67
:100F90000020012100F03CF8532C04F10104F7D3A8
:100FA00043200021002400F033F88020002100F0CD
:100FB0002FF800BF0020012100F02AF8532C04F183
:100FC0000104F7D344200021002400F021F8802000
:100FD000002100F01DF800BF0020012100F018F8EA
:100FE000532C04F10104F7D345200021002400F024
:100FF0000FF88020002100F00BF800BF0020012135
:1010000000F006F8532C04F10104F7D310BD0000E2
:1010100070B541F60044C4F201040E460546204670
:1010200002210022FFF7E0FB002E18BF0126204618
:1010300004213246FFF7D8FBEA0920460821FFF7D2
:10104000D3FB204610210022FFF7CEFB20461021C3
:101050000122FFF7C9FBC5F3801220460821FFF7E4
:10106000C3FB204610210022FFF7BEFB20461021C3
:101070000122FFF7B9FBC5F3401220460821FFF714
:10108000B3FB204610210022FFF7AEFB20461021C3
:101090000122FFF7A9FBC5F3001220460821FFF744
:1010A000A3FB204610210022FFF79EFB20461021C3
:1010B0000122FFF799FBC5F3C00220460821FFF784
:1010C00093FB204610210022FFF78EFB20461021C3
:1010D0000122FFF789FBC5F3800220460821FFF7B4
:1010E00083FB204610210022FFF77EFB20461021C3
:1010F0000122FFF779FBC5F3400220460821FFF7E4
:1011000073FB204610210022FFF76EFB20461021C2
:101110000122FFF769FB05F0010220460821FFF7D5
:1011200063FB204610210022FFF75EFB20461021C2
:101130000122FFF759FB204602210122BDE8704041
:10114000FFF752BB70B586B0002541F21800CDE91B
:101150000455CDE90255C4F20200016841F600448D
:1011600041F0100101600168C4F2010401F01001B6
:10117000019101990168002241F08001016001683C
:101180001F2601F0800101910199016841F00401DD
:10119000016000681F2100F00400019001982046C2
:1011A000FFF722FB0120CDE903050220059002A9EB
:1011B00020460296FFF724FA06B070BDFEE7000055
:1011C000FEE700007047000070470000FFF718BB03
:1011D00070470000FEE7000090B0FFF71FFB0024FF
:1011E0000120CDE90B44CDE9094406900A904FF463
:1011F000E01006AE4FF4803102250F903046CDE965
:101200000714CDE90D51FFF77DFC28B1EFF31080F5
:1012100072B600BFFEE700BF0F20CDE901054FF415
:101220008060CDE9040401A802210394FFF78CFB40
:1012300020B1EFF3108072B6FEE700BFFFF782FF28
:1012400041F60045C4F20105284601210022FFF7BE
:10125000CBFA6420FFF7C0F9284601210122FFF7ED
:10126000C3FA21200021FFF7D3FEC8200021FFF799
:10127000CFFE06200021FFF7CBFE13200021FFF751
:10128000C7FE20200021FFF7C3FE0C200021FFF73E
:10129000BFFEFFF74FFE40F2700441F28369642005
:1012A000711EC2F20004C0F600090091FFF794F924
:1012B000FFF740FE40200021FFF7AAFE802000211A
:1012C000FFF7A6FE00200121FFF7A2FE0120012169
:1012D000FFF79EFE01200121FFF79AFE7F200121EA
:1012E000FFF796FE01200121FFF792FE0120012168
:1012F000FFF78EFE40200021FFF78AFE86200021A6
:10130000FFF786FE00200121FFF782FE0020012169
:10131000FFF77EFE44200121FFF77AFE7D200121A8
:10132000FFF776FE40200121FFF772FE0020012129
:10133000FFF76EFE40200021FFF76AFE8C2000219F
:10134000FFF766FE00200121FFF762FE7C200121ED
:10135000FFF75EFE04200121FFF75AFE182001214D
:10136000FFF756FE04200121FFF752FE78200121ED
:10137000FFF74EFE40200021FFF74AFE9220002199
:10138000FFF746FE00200121FFF742FE3820012131
:10139000FFF73EFE54200121FFF73AFE54200121C1
:1013A000FFF736FE54200121FFF732FE18200121FD
:1013B000FFF72EFE40200021FFF72AFE9820002193
:1013C000FFF726FE00200121FFF722FE0020012169
:1013D000FFF71EFE36200121FFF71AFE36200121FD
:1013E000FFF716FE00200121FFF712FE0020012169
:1013F000FFF70EFE236841F6D5013046C0F6000126
:101400000222A246FEF71CFF9DF81800D0B3009DF3
:101410004FF00008A0F1200441200021FFF7F8FD63
:1014200048F08000C0B20021FFF7F2FD002001214A
:10143000E4B2FFF7EDFD04EB440009EB400B9BF831
:1014400001009BF802609BF803709BF804400121A7
:10145000FFF7DEFD30460121FFF7DAFD38460121B6
:10146000FFF7D6FD20460121FFF7D2FD9BF80500CE
:101470000121FFF7CDFDA87808F10608002805F145
:101480000105C7D141200021FFF7C2FD8C200021BA
:10149000FFF7BEFD00200121FFF7BAFD002001216A
:1014A000FFF7B6FD36200121FFF7B2FD36200121FE
:1014B000FFF7AEFD00200121FFF7AAFD002001216A
:1014C000FFF7A6FDDAF8043041F6D50106A8C0F60C
:1014D00000010222FEF7B4FE9DF81800B0B3009F91
:1014E000122500BFA0F1200441200021FFF790FD4C
:1014F00045F08000C0B20021FFF78AFD00200121E5
:10150000E4B2FFF785FD04EB440009EB4006707878
:10151000B47896F803B096F804800121FFF778FDBF
:1015200020460121FFF774FD58460121FFF770FDA9
:1015300040460121FFF76CFD70790121FFF768FD3E
:10154000B8780635002807F10107CBD141200021EA
:10155000FFF75EFD9E200021FFF75AFD00200121CC
:10156000FFF756FD00200121FFF752FD3620012133
:10157000FFF74EFD36200121FFF74AFD0020012133
:10158000FFF746FD00200121FFF742FDDAF80830A1
:1015900041F6D50106A8C0F600010222FEF750FE72
:1015A0009DF81800B0B3009F242500BFA0F12004CF
:1015B00041200021FFF72CFD45F08000C0B2002142
:1015C000FFF726FD00200121E4B2FFF721FD04EB27
:1015D000440009EB40067078B47896F803B096F8AA
:1015E00004800121FFF714FD20460121FFF710FDC3
:1015F00058460121FFF70CFD40460121FFF708FD89
:1016000070790121FFF704FDB8780635002807F14D
:101610000107CBD1DAF8080054460130CAF80800B7
:101620003C284FF47A7006AEFFF440AE60680021AB
:10163000013060603C284FF47A70A160FFF436AE50
:10164000206861600130172888BF002020604FF4B7
:101650007A702BE630380A2801D20120704700202A
:1016600070470400000800000000000000020001B4
:10167000000010000000000000000001020304064A
:101680000708090000000000000000005F000000E3
:10169000000700070000147F147F1400242A7F2A0B
:1016A00012002313086462003649552250000005D9
:1016B00003000000001C224100000041221C000029
:1016C00014083E08140008083E08080000503000C6
:1016D00000000808080808000060600000002010F2
:1016E000080402003E5149453E0000427F40000090
:1016F0004261514946002141454B31001814127F87
:1017000010002745454539003C4A494930000171E0
:1017100009050300364949493600064949291E0092
:101720000036360000000056360000000814224142
:1017300000001414141414000041221408000201C3
:1017400051090600324979413E007E1111117E0097
:101750007F49494936003E41414122007F414122B3
:101760001C007F49494941007F09090901003E41A8
:1017700049497A007F0808087F0000417F41000046
:101780002040413F01007F08142241007F4040403B
:1017900040007F020C027F007F0408107F003E4162
:1017A00041413E007F09090906003E4151215E008A
:1017B0007F091929460046494949310001017F0145
:1017C00001003F4040403F001F2040201F003F409D
:1017D00038403F00631408146300070870080700CE
:1017E000615149454300007F414100000204081057
:1017F00020000041417F000004020102040040403B
:10180000404040000001020400002054545478007D
:101810007F48444438003844444420003844444815
:101820007F00385454541800087E090102000C52FD
:1018300052523E007F080404780000447D400000BE
:101840002040443D00007F102844000000417F40BC
:1018500000007C04180478007C08040478003844F4
:10186000444438007C1414140800081414187C0034
:101870007C0804040800485454542000043F4440A9
:1018800020003C4040207C001C2040201C003C40AC
:1018900030403C004428102844000C5050503C007C
:1018A0004464544C440000083641000000007F00AE
:1018B00000000041360800001008081008007846B3
:1018C000414678010202030405060708090A0B0CC9
:1018D0000D0E0F101025302A7500000000190008A9
:1018E00000000020100000009401000810190008FA
:1018F0001000002070060000B40100080000000085
:10190000010000001000000000127A00000000003A
:0400000508000131BD
:00000001FF
