:020000040800F2
:10000000C0060020F901000815140008811200083C
:1000100011140008B50200080915000800000000CE
:100020000000000000000000000000001D14000897
:10003000B90200080000000019140008211400088B
:10004000130200081302000813020008130200083C
:10005000130200081302000813020008130200082C
:10006000130200081302000813020008130200081C
:10007000130200081302000813020008130200080C
:1000800013020008130200081302000813020008FC
:1000900013020008130200081302000813020008EC
:1000A00013020008130200081302000813020008DC
:1000B00013020008130200081302000813020008CC
:1000C00013020008130200081302000813020008BC
:1000D00013020008130200081302000813020008AC
:1000E000130200081302000813020008130200089C
:1000F000130200081302000813020008130200088C
:10010000130200081302000813020008130200087B
:10011000130200081302000813020008130200086B
:10012000130200081302000813020008130200085B
:1001300000F002F800F050F814A696E8000CB24463
:10014000B344DA4501D100F047F8BAE80F000FA632
:1001500096E83000A5EB040504EB0607AAEB0704BC
:10016000A7F101074FEA15154FEA3414A4F1010471
:10017000AC4201D300F030F813F0010F18BFFB1AA6
:1001800043F0010300F001F8DBE71847801400009A
:10019000A0140000103A24BF78C878C1FAD85207DA
:1001A00024BF30C830C144BF04680C6070470000F1
:1001B000704700000023002400250026103A28BFC5
:1001C00078C1FBD8520728BF30C148BF0B607047C9
:1001D0001FB51FBD10B510BD00F031F81146FFF777
:1001E000F7FF01F093F900F04FF803B4FFF7F2FFC7
:1001F00003BC00F057F80000094880470948004751
:10020000FEE7FEE7FEE7FEE7FEE7FEE7FEE7FEE7C6
:10021000FEE7FEE704480549054A064B7047000023
:100220002514000831010008C0000020C00600208D
:10023000C0020020C002002070477047704775461A
:1002400000F02CF8AE4605006946534620F0070042
:10025000854618B020B5FFF7DDFFBDE820404FF020
:1002600000064FF000074FF000084FF0000BAC46BF
:10027000ACE8C009ACE8C009ACE8C009ACE8C0090A
:1002800021F007018D46704710B50446AFF300809A
:100290002046BDE81040FFF7A8BF000000487047A7
:1002A0001000002001491820ABBEFEE72600020026
:1002B00070470000FEE7000070470000EFF3108079
:1002C00072B600BFFEE70000B0B5044600F00AF9C0
:1002D000054640F20000C2F200000078611C18BF21
:1002E000044400BF00F0FEF8401BA042FAD3B0BDAA
:1002F0002DE9F04F82B00E68002E00F0E980A0F1E9
:10030000804241F6004540F20043A2F58432C4F237
:1003100001050624C4F201034FEAB227A84208BF30
:1003200005244FF0000E4FF001080F254FF0000A92
:100330004FF0000B052F38BF4FEAB224009408E0BD
:100340000E680AF1010A36FA0AF20EF1040E00F004
:10035000BF8008FA0AFC16EA0C09F1D04E684FF685
:10036000FF72C1F21002964212DC122E56D8DFE85C
:1003700006F0350B4D49555555555555555555555F
:1003800055555545510000BFD1F80CB046E000BFAF
:100390004FF6FF72C1F2210296420FDC0022C1F239
:1003A000110296421AD00022C1F21202964215D0D2
:1003B0000022C1F22102964210D02FE00022C1F2A9
:1003C000220296420AD00022C1F23102964205D0A2
:1003D0000022C1F23202964220D100BF8A684AB19F
:1003E000012A14BFC0F814C0C0F810C04FF0080BA9
:1003F00014E000BF4FF0040B10E000BFCA6802F128
:10040000040B0BE04FF0000B08E000BFCA6802F1DC
:10041000080B03E0CA6802F10C0B00BF02467446E9
:10042000B9F5807F24BF0432203C166805FA04F732
:1004300026EA07070BFA04F637431760CA79D20693
:100440007FF57EAF41F21807C4F202073A684FF613
:10045000084542F001023A603A68CFF6FF7502F0B3
:1004600001020192019A2AF003021A440F245759FB
:100470000EF00C06B440A743009C04FA06F637437E
:1004800057514E6840F20C44F2029A6854BF22EA77
:10049000090242EA0902C4F201049A602268B70222
:1004A00054BF22EA090242EA090222605A68B703ED
:1004B00054BF22EA090242EA09025A600F251A686B
:1004C000F70354BF22EA090242EA09021A6037E739
:1004D00002B0BDE8F08F0000002A08BF09040161E6
:1004E0007047000040F2B800C2F200000068704798
:1004F00040F2000040F2B801C2F20000C2F2000176
:1005000000780A68104408607047000080B542F225
:100510000000C4F20200016841F0100101600320F4
:1005200000F07AF80F2000F005F800F027F800201E
:1005300080BD000070B540F20006C2F2000640F235
:1005400008013278C2F200014FF47A730968B3FBF4
:10055000F2F20446B1FBF2F1084600F04BFB0F2C1F
:100560004FF0010508D838B94FF0FF30214600227E
:10057000002500F025F87460284670BD82B041F275
:100580001800C4F202000168022241F0010101607A
:10059000016801F0010101910199416841F0805128
:1005A0004160406800F08050009000980420C4F240
:1005B0000100016862F31A61016002B07047000037
:1005C00010B54EF60C5CCEF2000CDCF80030C3F334
:1005D000022E8EF00704042C28BF0424BEF103036E
:1005E0004FF0FF3E0EFA04F438BF0023A1439940B8
:1005F0000EFA03F39A43114300F00F0200F1604337
:100600000901043A03F564436244002848BF02F13B
:100610000C03197010BD00004EF60C51CEF2000113
:100620000A684FF6FF031A4060F30A2242F0806026
:1006300040F0FD7008607047002804BF012070473B
:100640002DE9F04381B042F20008C4F202080446EA
:10065000D8F800000D4600F0070088420CD2D8F808
:10066000000020F007002843C8F80000D8F8000078
:1006700000F00700A8426CD1206841F2040981070C
:10068000C4F2020917D5410705D5D9F8001041F485
:10069000E061C9F80010010705D5D9F8001041F450
:1006A0006051C9F80010D9F80010A26821F0F001DB
:1006B0001143C9F80010C00742D1D8F8000000F07B
:1006C0000700A8420CD9D8F8000020F00700284302
:1006D000C8F80000D8F8000000F00700A84238D1A0
:1006E0002068410707D5D9F80010E26821F4E061DD
:1006F0001143C9F80010000708D5D9F80000216996
:1007000020F4605040EAC100C9F80000D9F8002088
:1007100002F00C00082841F20020C0F27A004DD10E
:1007200041F2FA53C2F38341C0F60003595CD2038D
:1007300038D440F60010C0F23D0048433EE000BF10
:10074000606859F8041C022808D0012826D18903C2
:1007500006D4012001B0BDE8F08300BF8901F8D5BF
:10076000D9F8001021F003010843C9F80000FFF791
:10077000B9FE064641F28837D9F80000616800F0FA
:100780000C00B0EB810F98D0FFF7ACFE801BB84295
:10079000F2D9032001B0BDE8F08300BF8907D8D5A6
:1007A000DEE700BFD9F8002041F2F853C2F340421F
:1007B000C0F600039A5C4843B0FBF2F0D9F8001091
:1007C00041F2E852C1F30311C0F60002515C40F25D
:1007D000080220FA01F140F20400C2F200000068B1
:1007E000C2F200021160FFF7A5FE002001B0BDE8D3
:1007F000F0830000002804BF012070472DE9F0417C
:1008000082B00446007841F20006C007C4F2020636
:100810000CD0706800F00C00042840F08180306833
:10082000800303D56068002800F0468120788007A7
:100830001BD5706810F00C0F09D0706800F00C0028
:10084000082840F087807068C00300F1838030681A
:10085000800703D52069012840F02E813068616946
:1008600020F0F80040EAC10030602078000713D47F
:10087000207840072CD4E569002D00F018817068BD
:1008800000F00C00082840F0A780012D40F0048102
:10089000012002B0BDE8F081A069002800F084804A
:1008A0000020C4F242200121C0F88014FFF71AFE94
:1008B000054600BF706A800700F1B280FFF712FEA4
:1008C000401B0228F6D9032002B0BDE8F08100BF2A
:1008D000F0695FEAC00808D4F06940F08050F06128
:1008E000F06900F080500090009847F20007C4F2D1
:1008F00000073868C00549D4386840F48070386013
:10090000FFF7F0FD054600BF3868C0053ED4FFF78D
:10091000E9FD401B6428F7D9032002B0BDE8F0814F
:10092000706800F00C00082803D17068C0033FF520
:1009300076AF61683068002900F00C81B1F5A02F16
:1009400000F00081B1F5803F40F01A8140F4803022
:100950001CE100BF2069002840F20000C4F24220E0
:1009600000F0888001210160FFF7BCFD054600BF53
:10097000306880073FF572AFFFF7B4FD401B0228D7
:10098000F6D9032002B0BDE8F08100BFE168306A0B
:10099000002900F09D80052900F09280012940F097
:1009A000AF8040F00100B1E00020C4F242200021FD
:1009B000C0F88014FFF796FD054600BF706A8007F7
:1009C0007FF556AFFFF78EFD401B0228F6D90320B6
:1009D00002B0BDE8F08100BF0027C4F2422700202A
:1009E0003866FFF77FFD022D05460DD13068800186
:1009F00040F1DE80FFF776FD401B02284FF0030038
:100A0000F4D902B0BDE8F081306880014FD5FFF71E
:100A100069FD401B02284FF00300F5D9F1E700BF44
:100A200040F20800C2F20000006844F6D351C1F25F
:100A30006201A0FB0101480A019000BF00BF0198BC
:100A4000411E002801913FF413AF00BF0198411EE1
:100A5000002801913FF40CAF00BF0198411E00280F
:100A600001913FF405AF00BF0198411E002801919C
:100A7000E4D1FDE600210160FFF734FD054600BF2B
:100A8000306880077FF5F1AEFFF72CFD401B022890
:100A90004FF00300F4D9B4E77068216A00F48032A3
:100AA0008A4209D1616A00F47010884204D10020A2
:100AB00002B0BDE8F08100BF012002B0BDE8F081C6
:100AC00040F004003062306A40F001001EE000BFD8
:100AD00020F001003062306A20F004003062FFF73D
:100AE00001FD054641F28837306A800720D5FFF7BF
:100AF000F9FC401BB8424FF00300F5D981E700BF75
:100B000020F001003062306A20F004003062FFF70C
:100B1000E9FC054641F28837306A800708D4FFF7C0
:100B2000E1FC401BB842F7D9032002B0BDE8F081D8
:100B3000B8F1000F3FF59FAEF06920F08050F061F2
:100B400099E600BF40F480203060306840F4803087
:100B50001CE000BF20F480303060306820F480203A
:100B60003060FFF7BFFC0546306880037FF55EAE5E
:100B7000FFF7B8FC401B64284FF00300F4D940E7AE
:100B800020F480303060306820F480203060FFF73F
:100B9000A9FC0546306880033FF548AEFFF7A2FC8C
:100BA000401B6428F6D9032002B0BDE8F08100BFE5
:100BB000206AB0F5803F05D17168A26821F4003148
:100BC000114371607168626A21F474111143084322
:100BD000706001203866FFF785FC044630688001AC
:100BE0003FF565AFFFF77EFC001B02284FF00300C6
:100BF000F4D906E7411E0020B0EB116F1CBF0120A5
:100C000070474EF21002CEF2000251604EF62351B0
:100C1000CEF20001F0230B70072190601160704745
:100C200090F83C20012A4FF0020242D010B580F823
:100C30003D200268D2F804E0D2F808C00C682EF01B
:100C40007003234340F6FF34C4F20004A242536011
:100C500010DCB2F1804F1FD040F20043C4F2000319
:100C60009A4219D040F60003C4F200039A4213D00E
:100C700017E000BF40F60043C4F200039A420BD0D5
:100C800043F20043C4F201039A4205D042F6004306
:100C9000C4F201039A4204D149682CF0800319433D
:100CA00091600121002280F83D1080F83C20BDE8D1
:100CB0001040104670470000002804BF0120704714
:100CC00010B5044690F83D0028B9002084F83C0097
:100CD000204600F01FF8022084F83D002068211D06
:100CE00000F0A2FB012084F8460084F83E0084F85E
:100CF0003F0084F8400084F8410084F8420084F802
:100D0000430084F8440084F8450084F83D00002046
:100D100010BD0000006840F20041C4F200018842AA
:100D200018BF704781B041F21C00C4F20200016894
:100D300041F002010160006800F00200009000989C
:100D400001B0704790F83C20012A4FF002026CD0AD
:100D500080B580F83D20D0F800C04FF67772DCF8FF
:100D6000083023EA0202CCF808200B684F2B29DC5C
:100D70001F2B45DD202B46D0302B44D0402B40F09C
:100D8000AF80D1F804E0C968DCF82030DCF820201E
:100D900022F00102CCF82020DCF8182022F0F0022A
:100DA00042EA011123F00A0242EA0E02CCF81810BE
:100DB000CCF82020DCF8081041F0470121F0300188
:100DC00028E000BF6F2B33DDB3F5005F74D0B3F5BF
:100DD000805F21D0702B40F08380D1E901E3C968A6
:100DE000DCF8082043EA0E0322F47F4243EA0121A3
:100DF0001143CCF80810DCF8081041F0770109E045
:100E00000BB1102B6CD1DCF8081021F070011943E4
:100E100041F00701CCF808100022012180F83D10B4
:100E2000002180F83C10BDE880401046704700BFAC
:100E3000502B21D0602B53D1D1F804E0C968DCF8E5
:100E40002030DCF8202022F01002CCF82020DCF842
:100E5000182022F4704242EA013123F0A00242EA53
:100E60000E12CCF81810CCF82020DCF8081041F055
:100E7000670121F01001CDE7D1F804E0C968DCF882
:100E80002030DCF8202022F00102CCF82020DCF811
:100E9000182022F0F00242EA011123F00A0242EA8D
:100EA0000E02CCF81810CCF82020DCF8081041F025
:100EB000570121F02001ADE7D1E901E3C968DCF871
:100EC000082043EA0E0322F47F4243EA0121114342
:100ED000CCF80810DCF8081041F480419AE700BF14
:100EE00001229AE790F83C30012B04BF02207047A2
:100EF0004FEAB202032A00F21D812DE9F041DFE83A
:100F000002F003C7479100BF036843F200461D6A21
:100F10001A6A25F0020522F001021A621A465C687C
:100F200052F818CF8F68D1F800E0C4F20106B3423E
:100F300045EA070505D042F60047C4F20107BB4267
:100F400005D1CF6825F00C0527F004073D43B342D7
:100F500005D042F60046C4F20106B34205D1D1E9FC
:100F6000056724F4407434433C432CF0730747EA8C
:100F70000E075C609F614F6809695F631D629F692E
:100F800047F008079F619F6927F004079F61C6E04B
:100F9000036843F200461D6A1A6A25F4007522F4BC
:100FA00080721A621A46D3F804C052F81CEF8F6898
:100FB000D1F80080C4F20106B34245EA072505D006
:100FC00042F60047C4F20107BB4208D1CF6840F2A5
:100FD000FF443F0225F4406527EA04042543B34259
:100FE00005D042F60044C4F20104A34206D1D1E97F
:100FF00005462CF44057264347EA061C2EF073079B
:1010000047EA0807C3F804C0DF614F680969DF6376
:101010001D62DF6947F00807DF61DF6927F0040719
:10102000DF617CE0036843F20047D3F820C01A6A0E
:10103000C4F2010722F480521A621A465C6852F820
:101040001C5FD1F800E08E68BB4205D042F6004735
:10105000C4F20107BB4204D14F6924F4804444EA3E
:1010600087142CF4005747EA063725F4E64646EA8B
:101070000E265C60DE614E6809691E641F62DF69CE
:1010800047F40067DF61DF6927F48067DF6145E0CF
:10109000036843F200481D6A1A6A25F0200522F011
:1010A00010021A621A465C6852F818CF8F68D1F89D
:1010B00000E0C4F20108434545EA071505D042F6B1
:1010C0000047C4F20107BB4207D1CF686FF040066A
:1010D00025F0C00506EA07163543434505D042F61C
:1010E0000046C4F20106B34206D1D1E9056724F4F3
:1010F00040643E4344EA86042CF4E64747EA0E2760
:101100005C609F614F6809699F631D629F6947F436
:1011100000679F619F6927F480679F6109021368D8
:10112000194311600021BDE8F041002280F83C2005
:10113000084670470121002280F83C20084670478D
:10114000002804BF0120704710B5044690F83D0008
:1011500028B9002084F83C00204600F01FF8022047
:1011600084F83D002068211D00F05EF9012084F81C
:10117000460084F83E0084F83F0084F8400084F87C
:10118000410084F8420084F8430084F8440084F865
:10119000450084F83D00002010BD000070470000AD
:1011A000C1B1042908D0082914BF41224022825C21
:1011B000012A05D016E000BF3F22825C012A11D12E
:1011C0000222082910D0042914BF80F8412080F899
:1011D0003F200BE090F83E20012A03D1022280F844
:1011E0003E2003E00120704780F84020006801F0B5
:1011F0001F010122036A02FA01F123EA01020262DD
:10120000026A114340F6FF32C4F2000290420162CA
:101210000EDCB0F1804F25D040F20041C4F2000155
:1012200088421FD040F60001C4F2000118E000BF60
:1012300040F60041C4F20001884213D043F200425C
:10124000C4F2010242F600419042C4F2010101D011
:1012500088420ED1436C904243F40043436401D072
:10126000884206D1816801F00701062904BF0020E9
:101270007047016841F001010160002070470000E3
:10128000FEE70000B0B586B00020CDE90400CDE94E
:10129000020041F21800C4F20200016840F6004466
:1012A00041F0100101600168C4F2010401F0100175
:1012B000019101990168002241F004010160016877
:1012C0004FF4807501F0040101910199016841F02A
:1012D0000801016000684FF4807100F0080001907F
:1012E00001982046FFF7F8F80120039002200490AF
:1012F0000320059002A920460295FEF7F9FF06B0EB
:10130000B0BD0000B0B594B040F2700040F20045AE
:101310000021C2F2000042F20F73C4F200050E91E8
:10132000CDE90C110991CDE90711CDE90511CDE900
:101330000311CDE901114722C0E9021301618021A7
:10134000C0E900528161FFF7B7FC002818BFFEF723
:10135000B5FF4FF480500B9040F27000C2F20000D5
:101360000BA9FFF7EFFC002818BFFEF7A7FF40F21C
:101370007000C2F20000FFF7E3FE002818BFFEF77E
:101380009DFF40F270000024C2F2000008A9CDE9E0
:101390000844FFF745FC002818BFFEF78FFF6020C8
:1013A000019040F22B10CDE90204059440F2700444
:1013B000C2F2000401A920460022FFF793FD002895
:1013C00018BFFEF77BFF21680020A942CDE912007B
:1013D0001190109002D014B0B0BD00BF41F21800BF
:1013E000C4F20200016841F004010160006810A924
:1013F00000F004000F900F984020109002201190F0
:10140000139005F58230FEF773FF14B0B0BD0000F5
:10141000FEE70000FEE70000704700007047000094
:10142000FFF766B87047000010B540F6FF3203685A
:10143000C4F2000240F6004E43F2004C9042C4F267
:10144000000EC4F2010C21DCB0F1804F28D040F234
:101450000044C4F20004A04222D040F60004C4F2CA
:101460000004A0421CD0904220DCB0F1804F27D075
:1014700040F20042C4F20002904221D040F6000245
:10148000C4F2000290421BD01EE000BF704507D09E
:10149000604505D042F60044C4F20104A042E2D106
:1014A0004C6823F0700323439042DEDD704507D083
:1014B000604505D042F60042C4F20102904203D1D9
:1014C000CA6823F4407313434C6923F08002D1F8B7
:1014D00000E08B68224360450260C362C0F828E0E8
:1014E00005D042F60042C4F20102904201D10969DE
:1014F0000163012141610169C90708BF10BD01698C
:1015000021F00101016110BDFEE7000090B0FEF77F
:10151000FDFF00240120CDE90B44CDE909440690EC
:101520000A904FF4E0104FF4803102250F9006A886
:10153000CDE90714CDE90D51FFF75CF920B1EFF3C8
:10154000108072B6FEE700BF0F20CDE901054FF411
:101550008060CDE9040401A802210394FFF76CF830
:1015600020B1EFF3108072B6FEE700BFFFF78AFEEE
:10157000FFF7C8FE40F27004C2F2000420460021CA
:10158000FFF70EFE42F20F7841F2873940F2CF7733
:1015900040F2E73540F2F3162068C0F82C804FF493
:1015A0001670C4F80C80FEF78FFE2068C0F82C90EF
:1015B0004FF49660C4F80C90FEF786FE2068C76270
:1015C0004FF4E160E760FEF77FFE2068C5624FF4EC
:1015D0001660E560FEF778FE2068C66240F6B83017
:1015E000E660FEF771FED7E7000000000000000093
:1015F00001020304060708090102020304050607A5
:1016000008090A0B0C0D0E0F101000003016000810
:10161000000000201000000094010008401600089F
:1016200010000020B0060000B40100080000000017
:10163000010000001000000000127A00000000000D
:0400000508000131BD
:00000001FF
