:020000040800F2
:1000000078060020F9010008350F0008150C0008DB
:10001000310F0008B5020008490F00080000000079
:100020000000000000000000000000003D0F00087C
:10003000B902000800000000390F0008410F000855
:10004000130200081302000813020008130200083C
:10005000130200081302000813020008130200082C
:10006000130200081302000813020008130200081C
:10007000130200081302000813020008130200080C
:1000800013020008130200081302000813020008FC
:1000900013020008130200081302000813020008EC
:1000A00013020008130200081302000813020008DC
:1000B00013020008130200081302000813020008CC
:1000C00013020008130200081302000813020008BC
:1000D00013020008130200081302000813020008AC
:1000E000130200081302000813020008130200089C
:1000F000130200081302000813020008130200088C
:10010000130200081302000813020008130200087B
:10011000130200081302000813020008130200086B
:10012000130200081302000813020008130200085B
:1001300000F002F800F050F814A696E8000CB24463
:10014000B344DA4501D100F047F8BAE80F000FA632
:1001500096E83000A5EB040504EB0607AAEB0704BC
:10016000A7F101074FEA15154FEA3414A4F1010471
:10017000AC4201D300F030F813F0010F18BFFB1AA6
:1001800043F0010300F001F8DBE7184758110000C5
:1001900078110000103A24BF78C878C1FAD8520705
:1001A00024BF30C830C144BF04680C6070470000F1
:1001B000704700000023002400250026103A28BFC5
:1001C00078C1FBD8520728BF30C148BF0B607047C9
:1001D0001FB51FBD10B510BD00F031F81146FFF777
:1001E000F7FF00F0B3FE00F04FF803B4FFF7F2FFA3
:1001F00003BC00F057F80000094880470948004751
:10020000FEE7FEE7FEE7FEE7FEE7FEE7FEE7FEE7C6
:10021000FEE7FEE704480549054A064B7047000023
:10022000450F000831010008780000207806002002
:1002300078020020780200207047704770477546AA
:1002400000F02CF8AE4605006946534620F0070042
:10025000854618B020B5FFF7DDFFBDE820404FF020
:1002600000064FF000074FF000084FF0000BAC46BF
:10027000ACE8C009ACE8C009ACE8C009ACE8C0090A
:1002800021F007018D46704710B50446AFF300809A
:100290002046BDE81040FFF7A8BF000000487047A7
:1002A0001000002001491820ABBEFEE72600020026
:1002B00070470000FEE7000070470000B0B504463C
:1002C00000F00AF9054640F20000C2F20000007892
:1002D000611C18BF044400BF00F0FEF8401BA042A0
:1002E000FAD3B0BD2DE9F04F82B00E68002E00F0B9
:1002F000E980A0F1804241F6004540F20043A2F5BA
:100300008432C4F201050624C4F201034FEAB22785
:10031000A84208BF05244FF0000E4FF001080F253A
:100320004FF0000A4FF0000B052F38BF4FEAB22400
:10033000009408E00E680AF1010A36FA0AF20EF19A
:10034000040E00F0BF8008FA0AFC16EA0C09F1D08E
:100350004E684FF6FF72C1F21002964212DC122E66
:1003600056D8DFE806F0350B4D49555555555555CE
:100370005555555555555545510000BFD1F80CB050
:1003800046E000BF4FF6FF72C1F2210296420FDC39
:100390000022C1F2110296421AD00022C1F21202CA
:1003A000964215D00022C1F22102964210D02FE0D1
:1003B0000022C1F2220296420AD00022C1F231028A
:1003C000964205D00022C1F23202964220D100BFEF
:1003D0008A684AB1012A14BFC0F814C0C0F810C01E
:1003E0004FF0080B14E000BF4FF0040B10E000BF0B
:1003F000CA6802F1040B0BE04FF0000B08E000BFED
:10040000CA6802F1080B03E0CA6802F10C0B00BFD6
:1004100002467446B9F5807F24BF0432203C16683A
:1004200005FA04F726EA07070BFA04F637431760C4
:10043000CA79D2067FF57EAF41F21807C4F20207EF
:100440003A684FF6084542F001023A603A68CFF642
:10045000FF7502F001020192019A2AF003021A4488
:100460000F2457590EF00C06B440A743009C04FA21
:1004700006F6374357514E6840F20C44F2029A6830
:1004800054BF22EA090242EA0902C4F201049A6056
:100490002268B70254BF22EA090242EA0902226036
:1004A0005A68B70354BF22EA090242EA09025A60B5
:1004B0000F251A68F70354BF22EA090242EA09022B
:1004C0001A6037E702B0BDE8F08F0000002A08BFCD
:1004D000090401617047000040F27000C2F20000A0
:1004E0000068704740F2000040F27001C2F2000064
:1004F000C2F2000100780A681044086070470000EA
:1005000080B542F20000C4F20200016841F010011F
:100510000160032000F07AF80F2000F005F800F0E9
:1005200027F8002080BD000070B540F20006C2F23E
:10053000000640F208013278C2F200014FF47A73EB
:100540000968B3FBF2F20446B1FBF2F1084600F091
:100550004BFB0F2C4FF0010508D838B94FF0FF3096
:1005600021460022002500F025F87460284670BD61
:1005700082B041F21800C4F202000168022241F088
:1005800001010160016801F00101019101994168D7
:1005900041F080514160406800F080500090009828
:1005A0000420C4F20100016862F31A61016002B024
:1005B0007047000010B54EF60C5CCEF2000CDCF873
:1005C0000030C3F3022E8EF00704042C28BF04244D
:1005D000BEF103034FF0FF3E0EFA04F438BF0023D0
:1005E000A14399400EFA03F39A43114300F00F021E
:1005F00000F160430901043A03F5644362440028B2
:1006000048BF02F10C03197010BD00004EF60C51EA
:10061000CEF200010A684FF6FF031A4060F30A2287
:1006200042F0806040F0FD7008607047002804BF11
:10063000012070472DE9F04381B042F20008C4F276
:1006400002080446D8F800000D4600F00700884272
:100650000CD2D8F8000020F007002843C8F80000AA
:10066000D8F8000000F00700A8426CD1206841F2E1
:1006700004098107C4F2020917D5410705D5D9F845
:10068000001041F4E061C9F80010010705D5D9F860
:10069000001041F46051C9F80010D9F80010A268A8
:1006A00021F0F0011143C9F80010C00742D1D8F879
:1006B000000000F00700A8420CD9D8F8000020F094
:1006C00007002843C8F80000D8F8000000F0070031
:1006D000A84238D12068410707D5D9F80010E26850
:1006E00021F4E0611143C9F80010000708D5D9F8DA
:1006F0000000216920F4605040EAC100C9F8000000
:10070000D9F8002002F00C00082841F20020C0F2C5
:100710007A004DD141F2D223C2F38341C0F60003E7
:10072000595CD20338D440F60010C0F23D00484373
:100730003EE000BF606859F8041C022808D0012878
:1007400026D1890306D4012001B0BDE8F08300BFA3
:100750008901F8D5D9F8001021F003010843C9F840
:100760000000FFF7B9FE064641F28837D9F80000CD
:10077000616800F00C00B0EB810F98D0FFF7ACFE81
:10078000801BB842F2D9032001B0BDE8F08300BF5E
:100790008907D8D5DEE700BFD9F8002041F2D02381
:1007A000C2F34042C0F600039A5C4843B0FBF2F04B
:1007B000D9F8001041F28002C1F30311C0F6000223
:1007C000515C40F2080220FA01F140F20400C2F24A
:1007D00000000068C2F200021160FFF7A5FE0020D1
:1007E00001B0BDE8F0830000002804BF012070477D
:1007F0002DE9F04182B00446007841F20006C007BE
:10080000C4F202060CD0706800F00C00042840F01E
:1008100081803068800303D56068002800F046813D
:10082000207880071BD5706810F00C0F09D0706815
:1008300000F00C00082840F087807068C00300F1C9
:1008400083803068800703D52069012840F02E811D
:100850003068616920F0F80040EAC100306020781B
:10086000000713D4207840072CD4E569002D00F050
:100870001881706800F00C00082840F0A780012D56
:1008800040F00481012002B0BDE8F081A069002899
:1008900000F084800020C4F242200121C0F88014BE
:1008A000FFF71AFE054600BF706A800700F1B280AC
:1008B000FFF712FE401B0228F6D9032002B0BDE864
:1008C000F08100BFF0695FEAC00808D4F06940F029
:1008D0008050F061F06900F080500090009847F27D
:1008E0000007C4F200073868C00549D4386840F4EE
:1008F00080703860FFF7F0FD054600BF3868C0051E
:100900003ED4FFF7E9FD401B6428F7D9032002B06D
:10091000BDE8F081706800F00C00082803D1706811
:10092000C0033FF576AF61683068002900F00C81A4
:10093000B1F5A02F00F00081B1F5803F40F01A81A1
:1009400040F480301CE100BF2069002840F2000024
:10095000C4F2422000F0888001210160FFF7BCFD55
:10096000054600BF306880073FF572AFFFF7B4FD62
:10097000401B0228F6D9032002B0BDE8F08100BF79
:10098000E168306A002900F09D80052900F092801E
:10099000012940F0AF8040F00100B1E00020C4F236
:1009A00042200021C0F88014FFF796FD054600BFE5
:1009B000706A80077FF556AFFFF78EFD401B022857
:1009C000F6D9032002B0BDE8F08100BF0027C4F2D1
:1009D000422700203866FFF77FFD022D05460DD126
:1009E0003068800140F1DE80FFF776FD401B022871
:1009F0004FF00300F4D902B0BDE8F0813068800107
:100A00004FD5FFF769FD401B02284FF00300F5D9D1
:100A1000F1E700BF40F20800C2F20000006844F6AF
:100A2000D351C1F26201A0FB0101480A019000BF4D
:100A300000BF0198411E002801913FF413AF00BF91
:100A40000198411E002801913FF40CAF00BF0198AE
:100A5000411E002801913FF405AF00BF0198411EDF
:100A600000280191E4D1FDE600210160FFF734FD8B
:100A7000054600BF306880077FF5F1AEFFF72CFD1B
:100A8000401B02284FF00300F4D9B4E77068216AD4
:100A900000F480328A4209D1616A00F47010884201
:100AA00004D1002002B0BDE8F08100BF012002B0F7
:100AB000BDE8F08140F004003062306A40F001008F
:100AC0001EE000BF20F001003062306A20F0040018
:100AD0003062FFF701FD054641F28837306A800732
:100AE00020D5FFF7F9FC401BB8424FF00300F5D9C1
:100AF00081E700BF20F001003062306A20F004007E
:100B00003062FFF7E9FC054641F28837306A80071A
:100B100008D4FFF7E1FC401BB842F7D9032002B02C
:100B2000BDE8F081B8F1000F3FF59FAEF06920F00D
:100B30008050F06199E600BF40F48020306030685A
:100B400040F480301CE000BF20F48030306030681A
:100B500020F480203060FFF7BFFC0546306880033A
:100B60007FF55EAEFFF7B8FC401B64284FF0030032
:100B7000F4D940E720F480303060306820F48020E1
:100B80003060FFF7A9FC0546306880033FF548AEAA
:100B9000FFF7A2FC401B6428F6D9032002B0BDE891
:100BA000F08100BF206AB0F5803F05D17168A2686E
:100BB00021F40031114371607168626A21F474118B
:100BC00011430843706001203866FFF785FC044636
:100BD000306880013FF565AFFFF77EFC001B0228FF
:100BE0004FF00300F4D906E7411E0020B0EB116F6F
:100BF0001CBF012070474EF21002CEF2000251607D
:100C00004EF62351CEF20001F0230B7007219060C5
:100C100011607047FEE7000010B54020002100245D
:100C200000F068F88020002100F064F80020012125
:100C300000F060F8532C04F10104F7D341200021A7
:100C4000002400F057F88020002100F053F800BF86
:100C50000020012100F04EF8532C04F10104F7D3D9
:100C600042200021002400F045F88020002100F0FF
:100C700041F800BF0020012100F03CF8532C04F1A2
:100C80000104F7D343200021002400F033F8802032
:100C9000002100F02FF800BF0020012100F02AF809
:100CA000532C04F10104F7D344200021002400F068
:100CB00021F88020002100F01DF800BF0020012154
:100CC00000F018F8532C04F10104F7D3452000215B
:100CD000002400F00FF88020002100F00BF800BF86
:100CE0000020012100F006F8532C04F10104F7D391
:100CF00010BD000070B541F60044C4F201040E4678
:100D00000546204602210022FFF7E0FB002E18BF17
:100D10000126204604213246FFF7D8FBEA09204687
:100D20000821FFF7D3FB204610210022FFF7CEFB5E
:100D3000204610210122FFF7C9FBC5F3801220468F
:100D40000821FFF7C3FB204610210022FFF7BEFB5E
:100D5000204610210122FFF7B9FBC5F340122046BF
:100D60000821FFF7B3FB204610210022FFF7AEFB5E
:100D7000204610210122FFF7A9FBC5F300122046EF
:100D80000821FFF7A3FB204610210022FFF79EFB5E
:100D9000204610210122FFF799FBC5F3C00220462F
:100DA0000821FFF793FB204610210022FFF78EFB5E
:100DB000204610210122FFF789FBC5F3800220465F
:100DC0000821FFF783FB204610210022FFF77EFB5E
:100DD000204610210122FFF779FBC5F3400220468F
:100DE0000821FFF773FB204610210022FFF76EFB5E
:100DF000204610210122FFF769FB05F00102204681
:100E00000821FFF763FB204610210022FFF75EFB5D
:100E1000204610210122FFF759FB20460221012222
:100E2000BDE87040FFF752BB1378002B08BF704736
:100E30002DE9F04F81B041F2900A044641F040089C
:100E4000551EC0F6000A00BF40460021A3F120064F
:100E5000FFF750FF44F08000C0B20021FFF74AFFC7
:100E600000200121F6B2FFF745FF06EB46000AEB32
:100E700040077878BE7897F803B097F8049001217E
:100E8000FFF738FF30460121FFF734FF58460121B4
:100E9000FFF730FF48460121FFF72CFF7879012149
:100EA000FFF728FFAB780634002B05F10105CBD105
:100EB00001B0BDE8F04F704770B586B0002541F233
:100EC0001800CDE90455CDE90255C4F202000168CD
:100ED00041F6004441F0100101600168C4F20104D0
:100EE00001F01001019101990168002241F0800197
:100EF000016001681F2601F08001019101990168DC
:100F000041F00401016000681F2100F0040001901D
:100F100001982046FFF7DAFA0120CDE90305022007
:100F2000059002A920460296FFF7DCF906B070BDD5
:100F3000FEE70000FEE70000704700007047000079
:100F4000FFF7D0BA70470000FEE7000090B0FFF74F
:100F5000D7FA00240120CDE90B44CDE909440690DD
:100F60000A904FF4E0104FF4803102250F9006A84C
:100F7000CDE90714CDE90D51FFF736FC20B1EFF3B1
:100F8000108072B6FEE700BF0F20CDE901054FF4D7
:100F90008060CDE9040401A802210394FFF746FB19
:100FA00020B1EFF3108072B6FEE700BFFFF784FFB9
:100FB00041F60044C4F20104204601210022FFF75B
:100FC00085FA6420FFF77AF9204601210122FFF714
:100FD0007DFA21200021FFF78DFEC8200021FFF7B8
:100FE00089FE06200021FFF785FE13200021FFF770
:100FF00081FE20200021FFF77DFE0C200021FFF75D
:1010000079FEFFF709FE6420FFF758F90DA20020D2
:101010000021FFF709FF0DA200200121FFF704FFC7
:101020000DA200200221FFF7FFFE0FA200200321E6
:10103000FFF7FAFE0FA200200421FFF7F5FE00BF24
:10104000FEE700BF78696469616E0000656C6563E6
:1010500074726F6E69630000652D696E666F726DE4
:101060006174696F6E0000006D656E797568616E00
:101070000000000032343032313231313935320043
:101080000000000000000000010203040607080938
:101090000000000000000000005F000000000700EA
:1010A000070000147F147F1400242A7F2A120023D3
:1010B0001308646200364955225000000503000001
:1010C00000001C224100000041221C000014083EC8
:1010D00008140008083E080800005030000000080E
:1010E00008080808000060600000002010080402E2
:1010F000003E5149453E0000427F400000426151A0
:101100004946002141454B31001814127F10002739
:1011100045454539003C4A494930000171090503FC
:1011200000364949493600064949291E000036362D
:101130000000000056360000000814224100001490
:10114000141414140000412214080002015109066D
:1011500000324979413E007E1111117E007F4949DC
:101160004936003E41414122007F4141221C007F1F
:1011700049494941007F09090901003E4149497A2D
:10118000007F0808087F0000417F410000204041A7
:101190003F01007F08142241007F40404040007F13
:1011A000020C027F007F0408107F003E4141413E57
:1011B000007F09090906003E4151215E007F09199F
:1011C00029460046494949310001017F0101003F9C
:1011D0004040403F001F2040201F003F4038403F1C
:1011E0000063140814630007087008070061514980
:1011F000454300007F414100000204081020000028
:1012000041417F0000040201020400404040404090
:10121000000001020400002054545478007F484428
:10122000443800384444442000384444487F00385F
:101230005454541800087E090102000C5252523EC8
:10124000007F080404780000447D400000204044F2
:101250003D00007F102844000000417F4000007CDA
:1012600004180478007C08040478003844444438A6
:10127000007C1414140800081414187C007C080462
:10128000040800485454542000043F444020003CCB
:101290004040207C001C2040201C003C4030403C52
:1012A000004428102844000C5050503C0044645422
:1012B0004C440000083641000000007F00000000A0
:1012C00041360800001008081008007846414678AA
:1012D000010202030405060708090A0B0C0D0E0F94
:1012E000101000000813000800000020100000008B
:1012F0009401000818130008100000206806000080
:10130000B40100080000000001000000100000000F
:0813100000127A000000000049
:0400000508000131BD
:00000001FF
